:020000040800F2
:1000000000000520491B00084D1A00084F1A00087F
:10001000511A0008531A0008551A00080000000081
:10002000000000000000000000000000019A00082D
:10003000571A000800000000A19A0008059B00085C
:10004000991B0008991B0008991B0008991B0008C0
:10005000991B0008991B0008991B0008991B0008B0
:10006000991B0008991B0008991B0008991B0008A0
:10007000991B0008991B0008991B0008991B000890
:10008000991B0008991B0008991B0008991B000880
:10009000991B0008991B0008991B0008991B000870
:1000A000991B0008991B0008991B0008991B000860
:1000B000991B0008991B0008991B0008591A000891
:1000C000651A0008991B0008991B0008991B000875
:1000D000991B0008991B0008991B0008991B000830
:1000E000991B0008991B0008991B0008991B000820
:1000F000991B0008991B0008991B0008991B000810
:10010000991B0008991B0008991B0008991B0008FF
:10011000991B0008991B0008711A0008991B000818
:10012000991B0008991B0008991B0008991B0008DF
:10013000991B0008991B0008991B0008991B0008CF
:10014000991B0008991B0008991B0008991B0008BF
:10015000991B0008991B0008991B0008991B0008AF
:10016000991B0008991B0008991B0008991B00089F
:10017000991B0008991B0008991B0008000000004B
:10018000991B0008991B0008991B0008991B00087F
:10019000991B0008991B0008991B0008991B00086F
:1001A0007D1A0008991B0008891A0008991B00088D
:1001B000991B0008991B0008991B0008991B00084F
:0801C000991B0008991B0008BF
:1001D00010B5054C237833B9044B13B10448AFF381
:1001E00000800123237010BD2401002000000000C6
:1001F00088D1020808B5034B1BB103490348AFF38C
:10020000008008BD000000002801002088D10208FD
:1002100001F0FF01102A2BDB10F0070F08D010F8B7
:10022000013B013A8B422DD010F0070F42B3F6D1BB
:10023000F0B441EA012141EA014122F007047FF0D4
:1002400000070023F0E80256083C85EA010586EA2B
:10025000010685FA47F5A3FA87F586FA47F6A5FA67
:1002600087F68EB9EED1F0BC01F0FF0102F0070273
:1002700032B110F8013B013A83EA010313B1F8D11E
:100280000020704701387047002D06BF35460338FF
:10029000073815F0010F07D1013015F4807F02BF38
:1002A000013015F4C03F0130F0BC0138704700BF89
:1002B00081F0004102E000BF83F0004330B54FEA17
:1002C00041044FEA430594EA050F08BF90EA020F84
:1002D0001FBF54EA000C55EA020C7FEA645C7FEA17
:1002E000655C00F0E2804FEA5454D4EB5555B8BF3A
:1002F0006D420CDD2C4480EA020281EA030382EAAB
:10030000000083EA010180EA020281EA0303362D3C
:1003100088BF30BD11F0004F4FEA01314FF4801C0F
:100320004CEA113102D0404261EB410113F0004F21
:100330004FEA03334CEA133302D0524263EB4303D8
:1003400094EA050F00F0A780A4F10104D5F1200E76
:100350000DDB02FA0EFC22FA05F2801841F10001D1
:1003600003FA0EF2801843FA05F359410EE0A5F1A5
:1003700020050EF1200E012A03FA0EFC28BF4CF0D6
:10038000020C43FA05F3C01851EBE37101F000458C
:1003900007D54FF0000EDCF1000C7EEB00006EEB99
:1003A0000101B1F5801F1BD3B1F5001F0CD3490823
:1003B0005FEA30004FEA3C0C04F101044FEA44527A
:1003C00012F5800F80F09A80BCF1004F08BF5FEA01
:1003D000500C50F1000041EB045141EA050130BDE1
:1003E0005FEA4C0C404141EB0101013C28BFB1F5F3
:1003F000801FE9D291F0000F04BF01460020B1FA3E
:1004000081F308BF2033A3F10B03B3F120020CDA10
:100410000C3208DD02F1140CC2F10C0201FA0CF0EE
:1004200021FA02F10CE002F11402D8BFC2F1200C53
:1004300001FA02F120FA0CFCDCBF41EA0C01904009
:10044000E41AA2BF01EB0451294330BD6FEA040452
:100450001F3C1CDA0C340EDC04F11404C4F120023D
:1004600020FA04F001FA02F340EA030021FA04F34F
:1004700045EA030130BDC4F10C04C4F1200220FAA6
:1004800002F001FA04F340EA0300294630BD21FAE4
:1004900004F0294630BD94F0000F83F4801306BFAA
:1004A00081F480110134013D4EE77FEA645C18BF9E
:1004B0007FEA655C29D094EA050F08BF90EA020F35
:1004C00005D054EA000C04BF1946104630BD91EA2D
:1004D000030F1EBF0021002030BD5FEA545C05D130
:1004E0004000494128BF41F0004130BD14F580046F
:1004F0003CBF01F5801130BD01F0004545F0FE41E3
:1005000041F470014FF0000030BD7FEA645C1ABF17
:10051000194610467FEA655C1CBF0B46024650EA4E
:10052000013406BF52EA033591EA030F41F400217A
:1005300030BD00BF90F0000F04BF0021704730B500
:100540004FF4806404F132044FF000054FF00001D5
:1005500050E700BF90F0000F04BF0021704730B596
:100560004FF4806404F1320410F0004548BF40426B
:100570004FF000013EE700BF42004FEAE2014FEAC0
:1005800031014FEA02701FBF12F07F4393F07F4F9B
:1005900081F06051704732F07F4208BF704793F09E
:1005A0007F4F04BF41F40021704730B54FF46074B1
:1005B00001F0004521F000411CE700BF50EA0102B4
:1005C00008BF704730B54FF000050AE050EA01025D
:1005D00008BF704730B511F0004502D5404261EBCD
:1005E00041014FF4806404F132045FEA915C3FF40E
:1005F000D8AE4FF003025FEADC0C18BF03325FEAAB
:10060000DC0C18BF033202EBDC02C2F1200300FA5B
:1006100003FC20FA02F001FA03FE40EA0E0021FA80
:1006200002F11444BDE600BF70B54FF0FF0C4CF46E
:10063000E06C1CEA11541DBF1CEA135594EA0C0F20
:1006400095EA0C0F00F0DEF82C4481EA030621EA5B
:100650004C5123EA4C5350EA013518BF52EA033596
:1006600041F4801143F4801338D0A0FB02CE4FF048
:100670000005E1FB02E506F00042E0FB03E54FF078
:100680000006E1FB03569CF0000F18BF4EF0010E70
:10069000A4F1FF04B6F5007F64F5407404D25FEA6C
:1006A0004E0E6D4146EB060642EAC62141EA55511F
:1006B0004FEAC52040EA5E504FEACE2EB4F1FD0C61
:1006C00088BFBCF5E06F1ED8BEF1004F08BF5FEADF
:1006D000500E50F1000041EB045170BD06F0004691
:1006E00046EA010140EA020081EA0301B4EB5C043E
:1006F000C2BFD4EB0C0541EA045170BD41F4801136
:100700004FF0000E013C00F3AB8014F1360FDEBF5A
:10071000002001F0004170BDC4F10004203C35DA36
:100720000C341BDC04F11404C4F1200500FA05F3B9
:1007300020FA04F001FA05F240EA020001F000425A
:1007400021F0004110EBD37021FA04F642EB0601D0
:100750005EEA430E08BF20EAD37070BDC4F10C04FA
:10076000C4F1200500FA04F320FA05F001FA04F2BE
:1007700040EA020001F0004110EBD37041F10001AA
:100780005EEA430E08BF20EAD37070BDC4F12005B5
:1007900000FA05F24EEA020E20FA04F301FA05F21D
:1007A00043EA020321FA04F001F0004121FA04F2C5
:1007B00020EA020000EBD3705EEA430E08BF20EA95
:1007C000D37070BD94F0000F0FD101F000464000CF
:1007D00041EB010111F4801F08BF013CF7D041EA51
:1007E000060195F0000F18BF704703F00046520055
:1007F00043EB030313F4801F08BF013DF7D043EA26
:100800000603704794EA0C0F0CEA135518BF95EADB
:100810000C0F0CD050EA410618BF52EA4306D1D162
:1008200081EA030101F000414FF0000070BD50EA81
:10083000410606BF1046194652EA430619D094EA0B
:100840000C0F02D150EA013613D195EA0C0F05D1F5
:1008500052EA03361CBF104619460AD181EA030149
:1008600001F0004141F0FE4141F470014FF0000001
:1008700070BD41F0FE4141F4780170BD70B54FF09C
:10088000FF0C4CF4E06C1CEA11541DBF1CEA13551C
:1008900094EA0C0F95EA0C0F00F0A7F8A4EB0504FE
:1008A00081EA030E52EA03354FEA013100F08880F5
:1008B0004FEA03334FF0805545EA131343EA1263BE
:1008C0004FEA022245EA111545EA10654FEA002673
:1008D0000EF000419D4208BF964244F1FD0404F52C
:1008E000407402D25B084FEA3202B61A65EB030588
:1008F0005B084FEA32024FF480104FF4002CB6EB45
:10090000020E75EB030E22BFB61A754640EA0C00C4
:100910005B084FEA3202B6EB020E75EB030E22BF04
:10092000B61A754640EA5C005B084FEA3202B6EB45
:10093000020E75EB030E22BFB61A754640EA9C0004
:100940005B084FEA3202B6EB020E75EB030E22BFD4
:10095000B61A754640EADC0055EA060E18D04FEA92
:10096000051545EA16754FEA06164FEAC30343EA32
:1009700052734FEAC2025FEA1C1CC0D111F4801FFF
:100980000BD141EA00014FF000004FF0004CB6E7F8
:1009900011F4801F04BF01430020B4F1FD0C88BF97
:1009A000BCF5E06F3FF6AFAEB5EB030C04BFB6EBA2
:1009B000020C5FEA500C50F1000041EB045170BD95
:1009C0000EF0004E4EEA113114EB5C04C2BFD4EBC2
:1009D0000C0541EA045170BD41F480114FF0000E46
:1009E000013C90E645EA060E8DE60CEA135594EAC2
:1009F0000C0F08BF95EA0C0F3FF43BAF94EA0C0FC5
:100A00000AD150EA01347FF434AF95EA0C0F7FF439
:100A100025AF104619462CE795EA0C0F06D152EA8D
:100A200003353FF4FDAE1046194622E750EA410671
:100A300018BF52EA43067FF4C5AE50EA41047FF482
:100A40000DAF52EA43057FF4EBAE12E74FEA4102E5
:100A5000B2F1E04324BFB3F5001CDCF1FE5C0DD91C
:100A600001F0004C4FEAC0024CEA5070B2F1004F66
:100A700040EB830008BF20F00100704711F0804F69
:100A800021D113F13872BCBF01F00040704741F42E
:100A900080114FEA5252C2F11802C2F1200C10FA32
:100AA0000CF320FA02F018BF40F001004FEAC12316
:100AB0004FEAD32303FA0CFC40EA0C0023FA02F3BA
:100AC0004FEA4303CCE77FEA625307D150EA013390
:100AD0001EBF4FF0FE4040F44000704701F0004060
:100AE00040F0FE4040F40000704700BF53B94AB9DF
:100AF000002908BF00281CBF4FF0FF314FF0FF3026
:100B000000F074B9ADF1080C6DE904CE00F006F800
:100B1000DDF804E0DDE9022304B070472DE9F04779
:100B2000089D04468E46002B4DD18A42944669D9D1
:100B3000B2FA82F252B101FA02F3C2F1200120FAB4
:100B400001F10CFA02FC41EA030E94404FEA1C4802
:100B5000210CBEFBF8F61FFA8CF708FB16E341EAFE
:100B6000034306FB07F199420AD91CEB030306F184
:100B7000FF3080F01F81994240F21C81023E6344A5
:100B80005B1AA4B2B3FBF8F008FB103344EA034449
:100B900000FB07F7A7420AD91CEB040400F1FF335E
:100BA00080F00A81A74240F207816444023840EA9B
:100BB0000640E41B00261DB1D4400023C5E90043D4
:100BC0003146BDE8F0878B4209D9002D00F0EF8057
:100BD0000026C5E9000130463146BDE8F087B3FA8A
:100BE00083F6002E4AD18B4202D3824200F2F98072
:100BF000841A61EB030301209E46002DE0D0C5E975
:100C0000004EDDE702B9FFDEB2FA82F2002A40F0C0
:100C10009280A1EB0C014FEA1C471FFA8CFE0126C3
:100C2000200CB1FBF7F307FB131140EA01410EFB67
:100C300003F0884208D91CEB010103F1FF3802D20E
:100C4000884200F2CB804346091AA4B2B1FBF7F008
:100C500007FB101144EA01440EFB00FEA64508D92B
:100C60001CEB040400F1FF3102D2A64500F2BB8068
:100C70000846A4EB0E0440EA03409CE7C6F12007B7
:100C8000B34022FA07FC4CEA030C20FA07F401FAFD
:100C900006F31C43F9404FEA1C4900FA06F3B1FB86
:100CA000F9F8200C1FFA8CFE09FB181140EA0141EB
:100CB00008FB0EF0884202FA06F20BD91CEB010188
:100CC00008F1FF3A80F08880884240F28580A8F1E0
:100CD00002086144091AA4B2B1FBF9F009FB101132
:100CE00044EA014100FB0EFE8E4508D91CEB0101D0
:100CF00000F1FF346CD28E456AD90238614440EA73
:100D00000840A0FB0294A1EB0E01A142C846A646F2
:100D100056D353D05DB1B3EB080261EB0E0101FA7B
:100D200007F722FA06F3F1401F43C5E900710026D8
:100D30003146BDE8F087C2F12003D8400CFA02FC2E
:100D400021FA03F3914001434FEA1C471FFA8CFE3E
:100D5000B3FBF7F007FB10360B0C43EA064300FB2E
:100D60000EF69E4204FA02F408D91CEB030300F1CC
:100D7000FF382FD29E422DD9023863449B1B89B283
:100D8000B3FBF7F607FB163341EA034106FB0EF30C
:100D90008B4208D91CEB010106F1FF3816D28B42B9
:100DA00014D9023E6144C91A46EA004638E72E4685
:100DB000284605E70646E3E61846F8E64B45A9D27D
:100DC000B9EB020864EB0C0E0138A3E74646EAE7EC
:100DD000204694E74046D1E7D0467BE7023B61449A
:100DE00032E7304609E76444023842E7704700BF03
:100DF0000821164A30B5164C85B00846154D08F046
:100E00008DFB20604FF47A7008F00CFA0023012269
:100E100002A92068CDE902338DF808201A4608F0AF
:100E2000C3FB01A94FF0FF330222284605F08EFFD5
:100E30009DF8043002A920688DF808309DF805302F
:100E4000039300231A4608F0AFFBEAE7ECD102084F
:100E500040010020C40100200149002009F0FABF30
:100E60004920000808B5642008F0DCF9FBE7000021
:100E700010B594B01022002102240AA82BF00EF81D
:100E80001422002103A82BF009F81D4B192108A8F2
:100E90001A6C42F080521A641B6C03F08053019369
:100EA000019B184B1A6842F440421A6001221B68E9
:100EB00003F440430293029B4FF48033CDE90823AF
:100EC0004FF48003CDE90E434FF4D873CDE91244BB
:100ED000CDE9101307F064F906F010FE0F2300208F
:100EE0000721CDE903344FF4A053CDE905034FF4B6
:100EF000805303A8079307F03FFB14B010BD00BF59
:100F000000380240007000402DE980489BB010225C
:100F1000002101250DA84FF010492AF0BFFF002441
:100F200005F08CF9C64B0DA8ADF834501094CDE9FE
:100F30000E9305F0A1F917230DA88DF835508DF803
:100F40003C308DF8425005F097F9042005F084F903
:100F5000BFF34F8FBFF36F8FBA4AC2F85042BFF34F
:100F60004F8FBFF36F8F536943F400335361BFF367
:100F70004F8FBFF36F8FC2F88440BFF34F8FD2F80B
:100F8000803043F6E074C3F3C900C3F34E335B0112
:100F900003EA0406014646EA81750139C2F8605247
:100FA000F9D2203B13F1200FF2D1BFF34F8F5369D9
:100FB00043F480335361BFF34F8FBFF36F8F05F05E
:100FC000A1F80024FFF754FF142200210DA82AF0F5
:100FD00065FF9D4B10219D481A6B01274FF01008AB
:100FE0004FF0030B42F010024FF48059984D4FF030
:100FF000040A1A631A6B974E02F010020292029AC8
:101000001A6B42F002021A631A6B02F00202039298
:10101000039A1A6B42F001021A631A6B02F0010282
:101020000492049A1A6B42F040021A631A6B02F09F
:1010300040020592059A1A6B42F400721A631A6B09
:1010400002F400720692069A1A6B42F008021A63C2
:101050001A6B02F008020792079A1A6B42F4806238
:101060001A631A6B02F480620892089A1A6B42F0B3
:1010700020021A631A6B02F020020992099A1A6B75
:1010800042F480721A631A6B02F480720A920A9A0E
:101090001A6B42F080021A631A6B02F080020B9204
:1010A0000B9A1A6B42F004021A6300221B6B03F0C6
:1010B00004030C930C9B05F04FFC012208216648A9
:1010C00005F04AFC01224FF48051644805F044FCCD
:1010D0000022C021624805F03FFC00224021614807
:1010E00005F03AFC0DA95948CDE90D87CDE90F4B24
:1010F00005F0A6FA08230DA95748CDE90D37CDE92B
:101100000F4405F09DFA0DA95448CDE90D97CDE99E
:101110000F4405F095FAC0220DA95148CDE90D27DD
:10112000CDE90F4B05F08CFA40220DA94D48CDE9D1
:101130000D27CDE90F4B05F083FA4B484B498480CE
:1011400001600762C0E9054405F0C2F84849284635
:10115000C5E90A44C5E90C44C5E90014C5E90244DF
:1011600005F06DF939462846424D05F021FA402335
:101170004FF4C07240493046B460F461B462C6E9CD
:1011800005324FF40062C6E908294FF00209072230
:10119000C6E900140DA9CDF84C90C6E903A8CDE925
:1011A0000D92CDE90FA2CDE911B907F03BFD29461B
:1011B0004FF6FF7230460194C5E90078C5E9027424
:1011C00007F050FD384604F0C1FF29464FF6FF7284
:1011D0003046C5E90098C5E9027407F043FD0823CD
:1011E00029464FF6FF723046C5E900B8C5E902341A
:1011F00007F038FD4FF40C734FF6FF722946019348
:101200003046019BAF60EB60C5E900A807F02AFDFE
:1012100040F22B713046194D07F043FD43F2D202E4
:101220004FF02043164E28461A60164B2C62C5E933
:101230000036C5E90247C5E90444C5E9064423E090
:101240001B00000300ED00E00038024000040240F3
:10125000840100206003002000280240002002409A
:1012600000080240001802406001002000300240E7
:1012700000B0024044010020400100A018020020FC
:1012800068474020005C004005F0F6FC21462846F7
:1012900006F04CFA214628464E4D06F06DFA3422EF
:1012A00021460DEB02002AF0F9FD4B4B2822352197
:1012B00040F2152040F2352CAC862C6185F8364082
:1012C000C5E900340923C5E905230B23C5E9071344
:1012D00040F21B13C5E9090340F21D132846C5E976
:1012E0000BC3C5E9024406F0F3FAFF214FF4806E08
:1012F0004FF4F0724FF4887328460D941893ADF8AC
:1013000064408DF86640354DCDE912140521CDE9D4
:1013100014E14FF04041CDE90E24CDE916122246EA
:101320000DA9CDE9103906F09EFB2D482D4B046226
:10133000C0E90037C0E902A84FF4A0634FF01808D5
:10134000C0E90644C0E9048306F0E8FC04F058FD57
:1013500004F09CFC5C2004F05DFF00F0F3FB224BEA
:1013600028462C62C5E90036C5E90277C5E9044480
:10137000C5E9064405F080FC2146284606F0D6F96A
:101380002146284606F0F8F900F008FC00F005FCBC
:1013900007F0B8FE154A2146154807F0EDFE154B3B
:1013A000154A21461860154807F0E6FE144B154A09
:1013B00021461860144807F0DFFE144B144A2146FA
:1013C0001860144807F0D8FE134B186007F0B4FEFD
:1013D000FEE700BF6C02002000680140C40100204D
:1013E00014030020001000A0005400407CD202082A
:1013F000650E00085C01002034D20208AB1B000817
:1014000054010020A0D202084134000894030020B7
:1014100058D20208F10D0008580100200268034B61
:101420009A4201D104F080BE704700BF0010004016
:10143000704700000D4B82B00F216FF001001A6C55
:1014400042F080521A641A6C02F080520092009AA4
:101450005A6C42F480425A6400225B6C03F480436D
:101460000193019B02B004F095BE00BF003802401A
:10147000026882B0084B9A420BD1D3F8302803F5AA
:10148000006342F480521A631B6B03F48053019390
:10149000019B02B0704700BF003002400E4B07B501
:1014A00002689A4215D1A3F5F04305215A201A6B20
:1014B00042F400021A6300221B6B03F40003019341
:1014C000019B04F067FE5A2003B05DF804EB04F0C2
:1014D00093BE03B05DF804FB00B0024010B5AAB0A3
:1014E00004461422002104A82AF0D8FC84220021FA
:1014F00009A82AF0D3FC2368374A93423CD14FF421
:10150000804309A8099307F005F908B1FFF790FF98
:10151000324C4FF44070002204A9236B43F00203C5
:101520002363236B03F002030093009B1223CDE996
:10153000040303232A48CDE906230423089305F076
:101540007FF8236C002205211F2043F4001323643D
:10155000236C03F400130193019B04F01BFE1F2076
:1015600004F04AFE20200022052104F013FE202072
:1015700004F042FE2AB010BD1A4A9342FAD14FF449
:10158000803309A8099307F0C5F808B1FFF750FFA9
:10159000124C4FF4C07201211348236B43F08003B7
:1015A0002363236B03F080030293029B1223CDE994
:1015B00004230323CDE90613042304A9089305F0AB
:1015C0003FF8236C43F400032364236C03F400030B
:1015D0000393039BCEE700BF005400400038024055
:1015E00000040240005C0040001C0240184A08B59C
:1015F0000368934217D102F5F2324FF48071154817
:10160000136C23F40013136405F0FEF84FF400711B
:10161000104805F0F9F81F2004F0FCFD2020BDE87B
:10162000084004F0F7BD0C4A934210D102F5EE32A7
:1016300080210A48136C23F40003136405F0E4F8D6
:101640004FF480710548BDE8084005F0DDB808BDDD
:101650000054004000040240005C0040001C0240B6
:1016600070B5ACB004461422002106A82AF016FC7E
:10167000842200210BA82AF011FC2268484B9A42D0
:1016800040F08C800823052001240B934FF4C07395
:1016900010930223CDE911304FF400330BA8CDE9AC
:1016A000154307F037F808B1FFF7C2FE3D4B0024A1
:1016B00002250E265A6C06A93B4842F080625A6405
:1016C0005A6C02F080620092009A1A6B42F010028B
:1016D0001A631A6B02F010020192019A1A6B42F41B
:1016E00000721A631A6B02F400720292029A1A6B69
:1016F00042F480621A631A6B02F480620392039AC6
:101700001A6B42F040021A631A6B02F04002049214
:10171000049A1A6B42F480721A631B6B03F4807391
:101720000593059B1023CDE90635CDE908440A96BB
:1017300004F086FF4EF6FF7306A91C480A96CDE911
:101740000635CDE9084404F07BFFF72306A91848C5
:101750000A96CDE90635CDE9084404F071FF4FF44F
:10176000805306A91348CDE906350923CDE908447D
:101770000A9304F065FF4FF4464306A90E480A9603
:10178000CDE90635CDE9084404F05AFF5820224639
:10179000052104F0FFFC582004F02EFD2CB070BD94
:1017A000006801400038024000100240002402405E
:1017B00000280240001802400020024014220021AC
:1017C0002DE9F0418AB004460DEB02002AF066FBD9
:1017D00022682C4B9A4251D12B4B02250324092617
:1017E0009A6B4FF0040805A9284842F0020200272E
:1017F0009A639A6B02F002020192019A1A6B42F00C
:1018000010021A631A6B02F010020292029A1A6B0B
:1018100042F002021A631A6B02F002020392039A68
:101820001A6B42F008021A631B6B03F0080304935F
:10183000049BCDE90585CDE9084604F001FF40236E
:1018400005A91348CDE905350A23CDE907740993A5
:1018500004F0F6FE05A90E480996CDE90585CDE907
:10186000077404F0EDFE4FF4605305A9094809968A
:10187000CDE90535CDE9077404F0E2FE0AB0BDE814
:10188000F08100BF001000A00038024000100240AC
:1018900000040240000C0240026808B50B4B9A425B
:1018A00013D10B4A04210B48936B23F0020393637B
:1018B00004F0AAFF4421084804F0A6FF4FF4605149
:1018C0000648BDE8084004F09FBF08BD001000A016
:1018D000003802400010024000040240000C0240A8
:1018E000F0B5002387B00393294B1E68002E4DD11D
:1018F0000122022703250C241A6001A9254B264842
:101900009A6B42F001029A639B6B03F00103009310
:10191000009B4FF68373CDE90454CDE9013704F001
:101920008FFE48F2331301A91C480594CDE9013715
:10193000CDE9036504F084FE4CF2037301A9184855
:101940000594CDE90137CDE9036504F079FE4FF642
:101950003F0301A913480594CDE90137CDE903659B
:1019600004F06EFE282301A90F480594CDE9013744
:10197000CDE9036504F064FE082301A90B48059432
:10198000CDE90137CDE9036504F05AFE07B0F0BD9B
:101990009803002000380240001002400018024066
:1019A000000C024000140240001C024000080240EB
:1019B000214B1A6C42F0100270B51A6488B01B6C8F
:1019C000054601A903A803F010030293029B06F049
:1019D00083FE069B4BBB06F06FFE184E184B336020
:1019E00040F2E733F360174BB0FBF3F3013B3046B3
:1019F000736000233361B360B36107F0C3FA044638
:101A000080B9304607F066F9044658B9362004F02C
:101A1000F3FB0F2D0DD822462946362004F0BAFBE1
:101A2000094B1D60204608B070BD06F045FE400021
:101A3000D3E70124F6E700BF003802409C030020F2
:101A40000010004040420F003C0000207047FEE7BD
:101A5000FEE7FEE7FEE77047014805F0CFBB00BF99
:101A6000C4010020014805F026BE00BFC4010020CB
:101A7000014807F071B900BF9C030020014805F040
:101A800095BF00BF6C020020014804F006BD00BFF6
:101A9000840100200120704708B52AF0ABF8162316
:101AA00003604FF0FF3008BD08B52AF0A3F81623F5
:101AB0000360FEE770B50D4614460E46731B9C424C
:101AC00001DC204670BDAFF3008006F8010BF5E79E
:101AD00070B50D4614460E46731B9C4201DC204631
:101AE00070BD16F8010BAFF30080F5E74FF0FF3043
:101AF00070474FF4005300204B607047012070473F
:101B0000002070470B4A0346116810B509B90A490D
:101B10001160106809490A4C0344091B8B4206D91D
:101B20002AF068F80C2303604FF0FF3010BD1360FB
:101B3000FCE700BFE8030020F0630120000005205F
:101B4000000A000070470000DFF834D0002103E0F5
:101B50000C4B5B58435004310B480C4B42189A42D3
:101B6000F6D30B4A02E0002342F8043B094B9A42A9
:101B7000F9D304F0DDF92AF04BF9FFF7C5F9704706
:101B8000000005208023030800000020240100201D
:101B900024010020F0630120FEE7704708B501F042
:101BA000F9F8BDE8084001F081B801F0F5B84068E7
:101BB00070474160704700004FF0E022D2F8FC3DD2
:101BC00043F08073C2F8FC3D054B064AD3F8B01FC2
:101BD0000A43C3F8B02F1A6842F001021A60704736
:101BE000001000E055CEACC5511A01EB5301B1FB1A
:101BF000F3F07047014B5868704700BF001000E0D9
:101C0000704710B504460C2129F093FF204610BD03
:101C1000036810B51B69044631B19847A268636830
:101C20009B1A1844606010BD9847A060FBE7000055
:101C3000024B7020024A1360DB6818471000002036
:101C4000EC030020704710B50446042129F071FF11
:101C5000204610BD73B50E4E0D461446336813B9B9
:101C6000002002B070BD1B69702098470028F7D093
:101C70003368702001AA0DF106015B699847BDF831
:101C8000043001202B60BDF806302360E9E700BF77
:101C9000EC0300207FB501238DF817204FF47A72F2
:101CA000CDE901320DF1170200920A4601460548BE
:101CB00005F0ECF810B1034805F02FF807B05DF817
:101CC00004FB00BF180200207FB500230A464FF432
:101CD0007A718DF817300123CDE901310DF117012B
:101CE00000910146054805F0ABF910B1034805F035
:101CF00014F89DF8170007B05DF804FB18020020E7
:101D0000032823D8DFE800F0020B131A104B102130
:101D100010481A68B2FA82F2520904F01DBE0C4B48
:101D200040215A68B2FA82F252090B48F5E7084B93
:101D300080219A68B2FA82F25209F6E7044B4021F8
:101D40000648DA68B2FA82F25209E6E7704700BF45
:101D5000F003002000040240000802400018024086
:101D6000032823D8DFE800F0020B131A104B1021D0
:101D700010481A68003A18BF012204F0EDBD0C4B60
:101D800040215A68003A18BF01220B48F5E7084B7A
:101D900080219A68003A18BF0122F6E7044B4021DF
:101DA0000648DA68003A18BF0122E6E7704700BF2C
:101DB000F003002000040240000802400018024026
:101DC00003280FD8DFE800F00206090B10210648AF
:101DD00004F0C7BD40210548FAE78021FBE7402118
:101DE0000348F5E7704700BF0004024000080240C6
:101DF0000018024008B5032813D8DFE800F0020AF3
:101E00000D0F1021084804F0A1FD431E584258410F
:101E100008BD40210548F6E78021FBE74021044842
:101E2000F1E70020F1E700BF000402400008024093
:101E30000018024070B5084D00240126E0B2FFF7FB
:101E4000D9FF18B12B68012B18BF2E60013404355F
:101E5000052CF3D170BD00BFF0030020012380F8F2
:101E6000741080F875307047002070474164003965
:101E7000024B18BF01211970704700BF4B61012050
:101E800000207047836B0BB10846184770474FF628
:101E9000FF707047406803689B69184770470000EF
:101EA00038B5044601F082F823682046D3F88850FC
:101EB000074BD4E90F12A8470023064D84F84A3097
:101EC0002846FFF779FE0123256184F86C3038BD80
:101ED000000000C00004002001F01EB801F022B88C
:101EE00070B501F095F810490023C1F88430BFF3B4
:101EF0004F8FD1F8803043F6E074C3F3C900C3F3C9
:101F00004E335B0103EA0406024646EA8275013A53
:101F1000C1F87452F9D2203B13F1200FF2D1BFF374
:101F20004F8FBFF36F8F70BD00ED00E001F072B80E
:101F300000F0CEBF01F08CB901F094B900F0D2BF2F
:101F400010B5044618F0C2F923682046D3F8AC3027
:101F5000BDE81040184717F011BC10B504467C21AD
:101F600029F0E7FD204610BD90F877301BB140689E
:101F700003681B68184718467047000090F8341033
:101F80000D4B10B590F874401A788C4209D03AB9CC
:101F90000A490B4A08881488108001220C801A70A4
:101FA00010BD002AFCD0064A0449148808880C8019
:101FB00010800022F3E700BF44610120426101204C
:101FC0004061012070B50D46194635B9094B40F204
:101FD000D221094A094829F0DBFDC0E90F52003A35
:101FE000074B18BF01221A700368BDE87040D3F890
:101FF0008C30184704D302083CD302088AD3020865
:102000004A61012008B5094B1B888B4203D8084B55
:102010001B88934205D9074B9E21074A074829F0A0
:10202000B7FD074B1980074B1A8008BD406101209E
:1020300042610120CFD3020832D402088AD30208B9
:102040004661012048610120014608B5034B18682C
:1020500001B1012118F054F9012008BD4C610120A3
:10206000034B00225A609A60024A1A60704700BF10
:1020700000040020CCD202080121002208B5084645
:1020800007F086F90A4B186028B90A4B28210A4A3A
:102090000A4829F07DFD00220421012007F03EFAC4
:1020A000074B186018B9074B2C21034AF0E708BD0D
:1020B0001004002050D5020899D50208C8D502089E
:1020C0000C0400202FD60208024B4FF0FF31186895
:1020D00007F0B4B910040020014B186807F0E8B904
:1020E00010040020024B0021186807F0A7B900BFB8
:1020F00010040020FFF7F0BF0023034803491A46ED
:10210000006807F051BA00BF0C0400200400002052
:1021100013B50023074C01A91A46206807F086FA78
:102120004FF0FF33002201A9206807F07FFA02B0C8
:1021300010BD00BF0C04002003685B6C1847012031
:10214000704703689B6A18470D4B82B01A6B42F4C4
:1021500000021A631A6B02F400020192019A1A69D2
:1021600042F400021A611A6922F400021A61054B56
:10217000054A1A614FF08062044B9A6002B07047C2
:102180000038024084010020D121000800E100E075
:1021900040F2EF3070470000054B4FF08062036063
:1021A000044BC3F88820BFF34F8FBFF36F8F704786
:1021B000E8D7020800E100E010B504464FF45A6188
:1021C000FFF7EAFF204629F0B4FC204610BD0000CE
:1021D000024B1B68586803685B6918474C61012013
:1021E00070B504460A4B0C3000262546602260601C
:1021F0002672667245F8203B294618F0BDF904F5B1
:102200005A63EE602435AB42FBD1204670BD00BF5F
:10221000E8D7020808B50B290BD8DFE801F0120651
:10222000100A0A0A0A0808080808012008BD052043
:10223000FCE7054B6621054A054829F0A9FC00206A
:10224000F4E70220F2E700BF71D602088CD602083C
:10225000D6D6020808B50A2909D8DFE801F0100629
:102260000E080808080606060600012008BD054BF2
:102270008721054A054829F08BFC0020F6E702205B
:10228000F4E700BF71D602083BD70208D6D6020891
:102290002DE9F8434F7F0C4681463946FFF7BAFFD8
:1022A00094F81E80054648464146FFF7B3FF414675
:1022B00006464846FFF7CEFFA18A628B424B521A70
:1022C0001A649A61228B521A1A61E28A586342EAAE
:1022D000014220695A646268D863DA60216894F820
:1022E0001CC080294FEA0C6226D010D8202945EA6C
:1022F000020462D0402960D004295ED02A43324BC8
:10230000474542F40032DA615BD0304A40E0B1F533
:10231000807F07D0B1F5007FF0D142F4003242F067
:10232000090203E042F4003242F00A02DA61E26894
:102330001A625E6258612AE0A4682A43211D42F4B1
:102340000032D962DA6122785E62586142B1012AB4
:1023500021D01F4B40F211111E4A1F4829F018FCD2
:10236000DA690120618822F47F42013922F01002EB
:1023700042EA0122DA61144BDA6942F02002DA61A2
:10238000DA699206FCD410229A600028BDD0134A64
:102390001A60BDE8F8836288BCF1FF00D96902F1D8
:1023A000FF3418BF012021F47F4222F0100242EADC
:1023B000042242F01002DA61DDE744F40034DC610B
:1023C000B7E740F20122E3E700B00240010201005A
:1023D00086D70208A0D70208D6D60208010202005A
:1023E00070B50C46897FFFF735FF174BA68AE18A47
:1023F000628B41EA06412569921B58635964DD638B
:102400001A642668E168082E0DD19A611A61586233
:102410000E4A207F42EA0062DA610D4A19625D616C
:10242000DD601A6070BD0022D86148091A610A0A8D
:1024300000F4FC60C1F3C40102F4784202430A4391
:102440009A63044AEDE700BF00B0024009000100B2
:1024500001020200010203004069704790F8440045
:102460007047036B23B9C06A003818BF012070475A
:102470000120704780687047043010B50C460FC8C3
:1024800084E80F0010BD704708B5034A40F20F21E1
:10249000024B034829F07CFB30D80208CBF202083B
:1024A0008BD8020810B50446482129F042FB20468B
:1024B00010BD00002DE9F0431C46436BADF51F7DB8
:1024C00005460E461746002B52D0002203A8DFF81F
:1024D000A890CDE901320FF055FA4FF4F472502173
:1024E000249024A809F06FF93A46314624A80AF04E
:1024F00003F9012124A809F06FFA022324A88DF81A
:10250000D83009F00DFBBDF898622B9BBDF89C728A
:102510009E4228BF1E46419B9F4206EB460828BFAD
:102520001F46A89BA3EB4606479B9F421AD9012250
:1025300001A924A809F03DFB6B6B03EB080098424E
:102540000ED959789A78C90009EA022201F4FC618F
:102550000A4313F8031B42EAD10224F8022BEEE7E8
:102560003444E1E724A809F059FA24A809F078F9DD
:102570000DF51F7DBDE8F08300F8FFFF0A4A0260F9
:102580000022C0E90522C0E90722C0E90922C0E90A
:102590000B22C0E90D12C0E90F2280F84420C0E9E7
:1025A0000322C0E90122704784DB020820B40D46F3
:1025B00011461A46036B3BB1036C806BED1A28443D
:1025C0005DF8045B2AF061B9C06AF8E7036B10B5E7
:1025D00073B1036C826BC91A5318525C98785C789B
:1025E0000004DB7840EA0420104340EA036010BD99
:1025F000C36A5858FBE7036B43B1036CC91A836B7A
:102600005A18585C527840EA02207047C36A585AF8
:102610007047000070B50446006B0D461646D8B1F1
:10262000E36B934208D209230D4A68210D4884F8D0
:1026300044300D4B29F0ACFA0368DB689847206BF7
:102640003246A16B03681B69984710B90D2384F8C3
:102650004430A06B256470BDE06A0844FBE700BF0E
:102660000FD902088BD80208FCD802082DE9F843DC
:10267000436904462BB9234BAD21234A234829F053
:1026800087FA08228169FFF7C5FFA169204643F256
:102690003006043146F26437FFF798FF0546A1691A
:1026A000A36A0D4405F108029A4224D263690935F0
:1026B0000822204625F001010133A1616361FFF783
:1026C000A9FFD4F8188020464146FFF794FF8146C1
:1026D00008F104012046FFF779FFB1450546DED138
:1026E00008F102012046FFF786FFB842D7D1002D3E
:1026F000D5D0012004E0012300206361236AA36197
:10270000BDE8F88351D902089AD902088BD802088B
:102710002DE9F04F0446ADF51F7D8A4615468169C7
:1027200008229846FFF776FFA7692046391DFFF774
:102730004DFF07F10801024606462046FFF76AFFF3
:10274000636B074633B93C4B4FF4D7713B4A3C4867
:1027500029F01EFA002203A8CDE901320FF012F988
:102760004FF4F4725021249024A809F02CF832463A
:10277000394624A809F0C0FF012124A809F02CF94A
:10278000022324A88DF8D83009F0CAF9BAF90260FA
:10279000479BB34205D2012201A924A809F009FAF6
:1027A000F6E7BAF900904FEA4808BAF804702B9B94
:1027B00008FB06554F44BAF80260DFF888B03FB214
:1027C0009F4228BF1F46BAF8063009EB490A1E444B
:1027D000419B36B29E4228BF1E46479BB3421FD242
:1027E000012201A924A809F0E4F9626B4946524488
:1027F000B94202F1030211D212F8020C12F8013CA4
:10280000C0000BEA032300F4FC60034312F8030C3E
:1028100043EAD00325F811300131E9E74544DCE70C
:1028200024A809F0FBF824A809F01AF801200DF5F6
:102830001F7DBDE8F08F00BFCDD9020823DA020862
:102840008BD8020800F8FFFF0129036838BF012177
:10285000DB6A70B50D4604469847A84204D2236847
:102860002046DB6A984705466B1EE6691022204623
:1028700006EB031606F10801FFF7CCFE06F1100186
:102880002046FFF7A3FE236A043B0344C4E9055333
:1028900070BD00002DE9F34100210446482281610A
:1028A00080F84410FFF7B6FEA7690423634A39464F
:1028B0002046FFF77BFE40B10323614AF52184F8EF
:1028C0004430604B604829F063F907F108010423A4
:1028D0005E4A2046A161FFF769FE30B10423584AE1
:1028E000FD2184F844305A4BECE707F10C01042336
:1028F000584A2046A161FFF759FE064638B1052324
:102900004F4A4FF4827184F84430534BDAE707F1B1
:1029100010012046FFF75AFE054620B94F4B4FF4F1
:102920008571474ACEE707F1140804234C4A204634
:102930004146FFF73BFE00284BD0062384F8443085
:102940000423484A07F118012046FFF72FFE00280C
:1029500041D0072384F844304544434F0C2220469D
:102960002946FFF757FE05F1080604233A4620469C
:102970003146FFF71BFE94F8443000284AD0002B64
:102980004AD1A36A291DAB424AD805F10C03291D7F
:102990002046A3610191FFF719FE3044019960625E
:1029A0002046FFF713FE0644042220463146FFF777
:1029B00031FE04232D4A31462046FFF7F7FD00285B
:1029C00039D10123E6616361A369236202B0BDE8E6
:1029D000F0810126B4E7002EBED007F12001204689
:1029E000FFF7F4FD4FF47A7307F13001B0FBF3F019
:1029F00060602046FFF7EAFD07F14001A060204635
:102A0000FFF7E4FD07F14401E0602046FFF7DEFD3B
:102A10002061A1E7002BB8D00A2384F84430D5E721
:102A20002046FFF7D3FD08300C22054420462946F6
:102A3000FFF7F0FD97E70B23EFE700BF7DDA020811
:102A40009BDA020882DA02088BD80208C8DA020888
:102A5000CDDA0208E5DA0208EADA020800DB020849
:102A60000CDB020811DB020816DB02081BDB020884
:102A7000C0E90A2100220263FFF70CBF10B5002352
:102A800004460846E3620B6821639B689847A0628E
:102A90002046BDE81040FFF7FDBEF0B4BDF8105071
:102AA000BDF814602AB123B1CDE90456F0BCFFF79C
:102AB00001BDF0BC704700002DE9FF47994643690E
:102AC00004460F4690462BB92A4B7A212A4A2B48B6
:102AD00029F05EF808228169FFF79CFDA66920466F
:102AE00006F1080A311DFFF771FDA36A00EB0A0227
:102AF00005469A4231D231462046FFF77CFD43F22B
:102B0000300398421DD1B11C2046FFF774FD46F2F8
:102B10006433984215D1A5B12A4651462046C4F8DF
:102B200018A0FFF777FD0C9B01462A462046CDF8FA
:102B30000080CDE901933B46FFF7AFFF63690133A6
:102B40006361A3692B448DB1A361A369626A0133F8
:102B500023F001039342A3610AD10120236A60613B
:102B6000A36180F0010004B0BDE8F0870833EBE713
:102B70000020F6E751D9020820DB02088BD80208B2
:102B8000012070470C2070470C2303FB0100083024
:102B900070470C2303FB0100083070470120704789
:102BA00041F2A400704741F2A40303FB0100083086
:102BB000704741F2A40303FB010008307047012075
:102BC00070471020704700EB01100830704700EB91
:102BD000011008307047084600F03CBE034B10B5AA
:102BE0000446036015F01AFF204610BD2CDC0208D5
:102BF00010B50446FFF7F2FF1421204628F099FF94
:102C0000204610BD034B10B50446036015F006FFC7
:102C1000204610BDF8DB020810B50446FFF7F2FFAE
:102C200041F2AC01204628F084FF204610BD000090
:102C3000034B10B50446036015F0F0FE204610BDAE
:102C4000C4DB020810B50446FFF7F2FF1821204646
:102C500028F06FFF204610BD094B10B504460360F5
:102C600000F586501830FFF7B9FF04F12C00FFF78C
:102C7000C9FF04F11400FFF7DBFF204610BD00BFC1
:102C800060DC020808B50248FFF7E6FF08BD00BF98
:102C90001804002010B50446FFF7DEFF41F25C2166
:102CA000204628F046FF204610BD00002DE9F341E4
:102CB00000F05EFC0024054600F05EFC2346014661
:102CC0002246284600941DF03DF9264B264A204610
:102CD000264D1A6002F0B6FA25481DF09BF82B78B5
:102CE000BFF35B8FDB0736D4284628F024FF90B370
:102CF000204C214F214B04F1140007F1180604F178
:102D00002C0823606060C4F80880E760266115F035
:102D100087FE1B4B4046636115F082FE194B384617
:102D2000E36215F07DFE04F58053174A03F1EC00D1
:102D3000C3F8D82002F0EAFB224607F1140130461E
:102D400002F0C0FB304600F085FD104828F03EFF41
:102D5000284628F0FCFE0E4802B0BDE8F041FFF71F
:102D60009FB800BFA8610120942400201404002013
:102D70000800002018040020F014002060DC020885
:102D8000C4DB0208F8DB02082CDC0208852C0008F2
:102D90001824002070470000014816F058BD00BFFD
:102DA0001824002070B5234E234B244C3046244D6C
:102DB0002360FFF715FA284620F0D0F9214B0022B6
:102DC0004FF4807120481A861A6683F86C201A67BF
:102DD000DC60C3E912121D49C3E919124FF080717A
:102DE0005967012183F8781019490B604FF4F0718D
:102DF0000180184801804FF488711748C3E9042204
:102E0000C3E90622C3E90822C3E90A22C3E90E2264
:102E1000C3E91022C3E91422C3E91622C3E90165FC
:102E200001800E4883F8342001800D490A700D4A54
:102E30001A6070BD78160020F4D2020874160020C3
:102E40009824002018240020406101200100000186
:102E50004C6101204661012042610120486101204E
:102E60004461012080D402080148FFF795B900BFF2
:102E7000781600200020704781807047C18070471D
:102E800001817047418170477047704770477047B4
:102E9000704710B4C4880368121B84885B6D091BDB
:102EA00012B25DF8044B09B218474FF6FF738381E5
:102EB0004FF0FF3303621368C3611060704790F8EE
:102EC00025201AB190F8242002B118607047000044
:102ED000034B902283F85A2383F85823704700BF8E
:102EE00000E100E0094A0A49D3680A48C3F30A032B
:102EF000013B9BB20B801169C1F30A0101390180CA
:102F00001364536B43F0010353637047006801403F
:102F10001425002012250020014BD3F8AC00704787
:102F200000680140024B0122C3F8AC105A6270479E
:102F300000680140124A5369DB0370B51ED50023B7
:102F4000C2F88430BFF34F8FD2F8803043F6E0747C
:102F5000C3F3C900C3F34E335B0103EA0406014621
:102F600046EA81750139C2F87452F9D2203B13F157
:102F7000200FF2D1BFF34F8FBFF36F8F70BD00BF33
:102F800000ED00E07047382301FB03310023435478
:102F900090F838300BB9036C83647047704710B5F4
:102FA0000446582128F0C5FD204610BD38B504461A
:102FB00016F039FC23685D6E19F0A8FE0146204624
:102FC000A8472368084A2046D3F888500023A2F572
:102FD0007F31A847054B064A5A60064A1A649A642C
:102FE0004FF4FF225A6438BD00F807C0E02C0020DF
:102FF000982C002000F40BC016F0FCBB90F84B306E
:1030000013B1024B01221A7016F000BC10250020EB
:1030100016F0BABB16F023BD90F8252012B1036854
:103020005B6918477047000008B531B1044B40F2A6
:103030009711044A044828F0ABFD90F8390008BD08
:103040006CDC020880DC02080DDE020810B531B12C
:10305000064B40F29111064A064828F099FD406857
:1030600011460368BDE810401B6B18476CDC020872
:103070004FDE02080DDE020808B529B1034B7A21A4
:10308000034A044828F084FD006908BD6CDC02088E
:1030900000E002080DDE020808B529B1054B8321C6
:1030A000054A064828F074FD41618160C0E9063296
:1030B00008BD00BF6CDC0208B8E102080DDE0208A2
:1030C00010B5044629B1274BA421274A274828F0E8
:1030D0005FFD052A34D8DFE802F003292F34393E9A
:1030E000406803681B69984750B34FF0FF31606D2B
:1030F00006F0F4F80023012294F83E1084F83B30E7
:1031000084F83920A360636101B1226284F83E3003
:103110006362E36A2BB90123206D84F83A3006F02C
:10312000C7F9606DBDE8104006F008B9002380F8CB
:10313000393084F83E3003E003620023836043614A
:1031400010BD0362002383604361F2E7002380F82F
:1031500039300123EDE7003B18BF012380F83D30F3
:10316000EEE700BF6CDC020877E302080DDE020820
:1031700070B50446164629B1314BE721314A324831
:1031800028F006FD90F8393033B1304B1B6893F8C6
:103190006720436913444361E36A002B4DD0E16922
:1031A000D4E905325343A2684A43934220D2236AAA
:1031B000002B42D04FF0FF31606D06F08FF8236A8C
:1031C0000BB10023E362E36AFBB90125606D06F0F1
:1031D000B5F894F839300BB9236A3BB1E36A2BB9DF
:1031E0000123206D84F83A3006F062F9284670BD5C
:1031F00094F84C000028DDD09B1AB3FBF1F2994201
:1032000098BF02F1FF326262D4E7002294F83C508A
:10321000A3623046E262E2682261A2680132A260E3
:10322000336333685B699847002DCED194F83D3005
:10323000002BCBD184F83950C8E70125C9E700BF7E
:103240006CDC02084EE502080DDE02084C6101202C
:10325000034B4FF080629A604FF080729A60704723
:1032600000E100E0084B4FF08062C3F88820BFF314
:103270004F8FBFF36F8F4FF08072C3F88820BFF37A
:103280004F8FBFF36F8F704700E100E038B590F8C3
:1032900038303BBB01228360C36082634FF480728D
:1032A000436182874FF4F0728361C36103624362BA
:1032B0008362C3620363436380F83E30CA864FF47F
:1032C000887281F834300A870B63826C036102F5DF
:1032D000FF24D0E9101529448C420AD9084B582103
:1032E000084A03E0084B40F2F511084A084828F064
:1032F0004FFC026302F57F3284644263184638BD96
:10330000ACE80208ECE80208F2E6020822E702084C
:103310000DDE020810B5144C236823B3134B144A76
:103320001B6C11888B4213D1124B198804F0C8FB17
:10333000226892F86630013382F86630FEF7DCFED0
:10334000206816F0C3FF0020BDE81040FEF7D8BC8F
:1033500004F0B6FB206803681B6A98470020BDE8AC
:103360001040FEF7FDBC10BD4C610120006801401B
:1033700014250020122500202DE9F74304464FF4C0
:10338000707894F83A304FF0FF311BB9206D06F099
:1033900055F8F6E7606D05F0A1FF276BA36A266A72
:1033A000BB42656808BF676B36B32B683146284659
:1033B0005B6A98470023236284F83B30606D05F018
:1033C000BDFF2B684FF4F0723946CDF800802846D7
:1033D0005E694FF48873B0474FF0FF310646606D69
:1033E00005F07CFF94F83B30C3B1002384F83B30F8
:1033F000606D05F0A3FFC4E7636A002BDED02B6885
:103400002846D3E909939847616A01442846C8478A
:10341000A368626A66621344A360CFE7E7625EB1A5
:103420002B6828469B6A98470138E060002384F89F
:103430003C6084F83A30DBE70123E360F6E7000004
:10344000014808B5FFF798FFE02C0020036804222C
:1034500070B504465E6A00230D46B0474FF0FF3159
:10346000606D05F03BFF382101FB0543DA6A0AB1C4
:103470000022DA6201FB0545012385F83B30002379
:1034800085F83930606DBDE8704005F057BF38B53C
:1034900000EB810304460D46114658680368DB685B
:1034A000984729462046FFF7D1FF38BD70B50D4635
:1034B0001146044600EB85025068026896681A4679
:1034C000B04729462046FFF7C1FF70BD38B5164901
:1034D00000251648FFF752F8154C164B01202A46D6
:1034E000294623604FF48073A564A38784F84C00B9
:1034F00084F83E50C4E91055C4E91455C4E9015597
:10350000C4E90355C4E90555C4E90755C4E909559B
:10351000C4E90B55C4E90D5505F03AFF206528466E
:1035200005F09AFE606538BD18250020982C002013
:10353000E02C00209CEA0208704710B504460421E4
:1035400028F0F7FA204610BD012908B506D0022957
:1035500008D059B901F0C2FE006808BD01F0BEFEF6
:103560004068FAE701F0BAFE8068F6E70020F4E769
:1035700000487047E4EA02080F20704713B50024A2
:1035800051B1036801AA01948DF803409C680DF1C4
:103590000303A04702B010BD0846FBE7C08970478F
:1035A000008A7047C088704780887047807A00F032
:1035B0007F007047807AC0097047704710B5044695
:1035C000082128F0B6FA204610BD7047704700F574
:1035D00098730868496803C3704770477047416033
:1035E00070477047064BC0F84801C0F84C310023C3
:1035F000C0F8503100F5A273C0F84031704700BFE9
:10360000A53600080123037270477047704710B455
:1036100041680346C2689B68541001EB6200D20700
:1036200048BF0A595DF8044B48BFD3581847436850
:103630002BB183682BB9C06800F0010070471846B1
:1036400070470120704710B504460C2128F071FA2C
:10365000204610BD10B50446102128F06AFA204615
:1036600010BD10B504464FF4AE7128F062FA204642
:1036700010BD08B519F04AFBBDE8084019F0DABFE3
:1036800010B50446D0F8400158B10368DB6898478C
:1036900038B1D4F8400103689B6898470023C4F808
:1036A000403110BD2DE9F14FD0E9555A0746A868C1
:1036B00003681B6A9847C32805D8464BA321464A8E
:1036C000464828F065FA686803681B6A98470F281F
:1036D00003D8434BA421404AF2E7E86803681B6A19
:1036E00098470B2803D83F4BA5213B4AE8E7DFF872
:1036F000FC9019F00BFB043019F046FBD9F80000E0
:1037000010B10368DB689847D9F8000010B103686E
:103710001B689847DFF8D880D8F8000010B103681C
:103720005B699847D7F83C0110B103685B6898471C
:10373000D8F8000010B103681B689847D7F83C011F
:1037400010B103689B689847E86800214FF0000BB0
:1037500003685B6A9847244B0446C0F804B00360D2
:10376000594680F808B0A86803685B6A984706461F
:1037700001F06EFF6868594603685B6A9847054622
:10378000314601F041FFC9F80040C7F83C51C8F884
:103790000060E5B12B1DCAF8003030463368C5F82B
:1037A00008A0DB68F56398472B6828461B68984794
:1037B000214630461BF014F8236820461B699847C1
:1037C000236820465B6901B0BDE8F04F18472B46DF
:1037D000E1E700BF20EC0208AEEC0208B2ED0208FF
:1037E000F9ED02089CEE0208ACEF02088C610120A2
:1037F00088610120F8B5044617460E4619F096FB7D
:10380000104B00251C6029460F4BC4E955760F4E1E
:10381000236030680E4BC4E95355C4E95135036841
:10382000C4E94F559B689847284601F00BFD336863
:1038300093F876200AB1D86C00B9986821F075FA2F
:103840002046F8BD9861012060EF02084C6101201C
:1038500048EF0208064BC0F84801C0F84C3100237D
:10386000C0F8503100F5A273C0F84031704700BF76
:10387000A5360008406A7047806A704770478B8899
:10388000C069DB0A0A6850F823001044704710B57D
:10389000C2B1137BB3B1547BD27A240204F4E06446
:1038A0001443026A98B202EB840213888B4202D15D
:1038B00092F9020010BD05D80138043280B2002808
:1038C000F3D1F7E70020F5E710B504462C2128F0E6
:1038D00030F9204610BD000030B58BB00446BDF86D
:1038E00060500895BDF85C5007959DF850500695BE
:1038F0009DF84C5005959DF8485004959DF844500E
:1039000003959DF8405002959DF83C500195BDF8F7
:10391000385000951AF036FB064B20462360159B65
:10392000E361169B2362199B63621A9BA3620BB02F
:1039300030BD00BFD0EF0208704770477047704736
:1039400070477047704710B50446C42128F0F1F85D
:10395000204610BD036870B504461B6B154698479A
:103960002368204629465B6BBDE87040184770B558
:1039700004461D46BDF91060FFF7ECFF2368294699
:1039800020469B6B9847236831462046DB6BBDE899
:1039900070401847094A4FF4807102600022818408
:1039A000FF21826280F82610C0E90122C0E90322CB
:1039B000C0E90522C0E90722704700BFDC1C0308EC
:1039C0002DE9FF47044600251AF05EFD304B2646E0
:1039D00004F16C09E56304F1980746F8403B304672
:1039E000FFF7D8FF4846FFF7D5FF4FF480724FF638
:1039F000FF734FF4887AA4F8BC2003A9254A3846FF
:103A0000A4F8BE3004F10408C4F8982084F8C0304B
:103A1000ADF80C30C4E92755C4E92955C4E92B5544
:103A2000C4E92D5517F051FC2A46294630464FF47B
:103A3000F073CDF800A0FFF79AFF4FF07F433146B7
:103A40004046A36615F006FC2A46294648464FF430
:103A5000F073CDF800A0FFF78AFF0F4B49464046B0
:103A6000C4F8943015F0F6FB2A4629463846FFF78D
:103A700071FF0E2303A93846ADF80C3017F025FC72
:103A80004046394615F0E6FB204604B0BDE8F08715
:103A900030F00208C81D03080D0D0DFF30B585B0CC
:103AA0000368044601816D460146D3F884303C34F6
:103AB0002846984795E8070084E8070005B030BD20
:103AC00030B585B00368044641816D460146D3F8A0
:103AD00084303C342846984795E8070084E807007E
:103AE00005B030BD0022028042808280C2807047D3
:103AF00080F836107047036870B504461B6B154696
:103B000098472368204629465B6EBDE870401847F9
:103B100000207047806C704770477047704710B541
:103B200004464C2128F005F8204610BD10B5044687
:103B300041F2A40127F0FDFF204610BD08B5FFF7B4
:103B40006BFA08BD036870B55E6B0446114B8DB20D
:103B50001B682BB9104B6C21104A114828F018F83B
:103B60001049828D0988914203D80F4B6D210B4A71
:103B7000F3E713F812200D4B1B6853F8220003687B
:103B80001B6B9847281A334601B22046BDE87040A7
:103B9000184700BF9C6101205CF002089EF00208FB
:103BA000D9F00208A061012020F10208A4610120DF
:103BB0004FF4807100228184054982620160C0E96E
:103BC0000122C0E90322C0E90522C0E907227047AB
:103BD0008C1B03080022C0E90122C0E90322C0E9CE
:103BE0000522C0E907224FF480728284014A0260F4
:103BF000704700BFA0F1020838B504460D462622E2
:103C0000002128F04BF92046FFF7E4FF064B204641
:103C1000294623602B88E384FF2384F8283017F09B
:103C200054FB204638BD00BFC81D030800224FF0DA
:103C3000FF318260C0E90021704710B50446FFF7EC
:103C4000F5FF204610BD000010B5044600212622D5
:103C500028F024F92046FFF7BDFF094B4FF47F02FF
:103C600004F13C002360074BA3624FF6FF73A3856A
:103C70000023C4E90C322387FFF7D8FF204610BD8C
:103C80004C1C030818EC020810B50446FFF7DCFFD3
:103C9000024B204623600023A36410BD08F20208F3
:103CA0002DE9F04F044600264FF6FF77A14604F1B8
:103CB000F00804F5C27A04F5806B2DED108BB5B0D9
:103CC0001AF0E2FBE54BE66331AD49F8403B48466C
:103CD000FFF760FE04F16C0318462B93FFF75AFEC2
:103CE00004F19803184609EE103AFFF761FF04F15A
:103CF000C4032946ADF8C47018461B93FFF77CFF38
:103D00004046FFF7C1FF04F59E7318460A93FFF77C
:103D10009BFF5046FFF74CFF04F5D8732946ADF8DA
:103D2000C47018461C93FFF767FF04F5EE7318463E
:103D30000B93FFF789FF04F50973184609EE903AD3
:103D4000FFF7A2FF04F51C7318460C93FFF730FF32
:103D500004F527732946ADF8C47018461D93FFF784
:103D60004BFF04F5327318460AEE103AFFF78CFF4A
:103D700004F5457318460AEE903AFFF719FF04F56B
:103D800050732946ADF8C47018461E93FFF734FFF0
:103D900004F55B7318460D93FFF756FF04F56D733A
:103DA00018460E93FFF770FF5846FFF701FF04F225
:103DB0002C432946ADF8C47018461F93FFF71CFF2B
:103DC00004F58B6318460F93FFF73EFF04F59463E9
:103DD00018461093FFF758FF04F2EC4318460BEE19
:103DE000103AFFF7E5FE04F5A3632946ADF8C47069
:103DF00018462093FFF700FF04F24453184611932E
:103E0000FFF742FF04F5B26318460BEE903AFFF756
:103E10001BFF04F5BB6318460CEE103AFFF7C8FE13
:103E200004F204632946ADF8C47018462193FFF7E5
:103E3000E3FE04F5C66318461293FFF725FF04F26C
:103E40007C6318460CEE903AFFF7FEFE04F2C46362
:103E500018460DEE103AFFF7ABFE04F5DE63184688
:103E60001393FFF711FF04F23C7318460DEE903ADE
:103E7000FFF7EAFE04F284732946ADF8C4701846D1
:103E80002293FFF7B9FE04F5F66318460EEE103ADA
:103E9000FFF78EFE04F2DC7318461493FFF7F4FE6E
:103EA00004F6280318460EEE903AFFF7CDFE04F50F
:103EB00007632946ADF8C47018462393FFF79CFEAC
:103EC00004F69C0318460FEE103AFFF771FE04F655
:103ED000C8032946ADF8C47018462493FFF78CFE3A
:103EE00004F6F40318460FEE903AFFF7ADFE04F621
:103EF0003C1318461593FFF7C7FE04F688131846BF
:103F00000393FFF755FE04F6B41318461693FFF714
:103F1000BBFE04F5206318460493FFF795FE04F6F4
:103F200048232946ADF8C47018462593FFF764FE70
:103F300004F6742318460593FFF73AFE04F52A6346
:103F4000184608EE103A14F03FFF04F6B83329463D
:103F5000ADF8C47018462693FFF74EFE04F6E4331E
:103F600018461793FFF790FE04F54363184606932F
:103F7000FFF71EFE04F65C4318461893FFF784FE15
:103F800004F6A84318460793FFF75EFE04F54F6357
:103F90002946ADF8C47018462793FFF72DFE04F6A6
:103FA0001C5318461993FFF703FE04F648531846AE
:103FB0000893FFF749FE04F559632946ADF8C4702C
:103FC00018462893FFF718FE04F6BC5318461A93B8
:103FD000FFF7EEFD04F6E85318460993FFF734FEA9
:103FE00004F563632946ADF8C47018462993FFF7BA
:103FF00003FE04F65C63271D18462A93FFF7D8FDDD
:1040000004F68863184608EE903A14F0DDFE4FF48B
:10401000887332464846314600934FF4F073FFF7F9
:10402000A6FC4FF07F4349463846A3660DF1B00920
:1040300015F010F94FF48873324631462B980093EF
:104040004FF4F073FFF793FC054B2B993846C4F8F7
:10405000943015F0FFF84D2304E000BF98F20208F9
:10406000080808FF32460A2119EE100A00934B2374
:10407000FFF77DFC0F2231461B98FFF76BFC2946AA
:104080001B98ADF8C46017F020F91B9919EE100ABF
:1040900015F0E0F81B2214214046FFF75BFC134BA0
:1040A00041464846C4F82031D4F8F030A4F82461E1
:1040B000D3F88430984704F5967399E8070083E8AD
:1040C000070004F57A631B93094B1B682BB9094B56
:1040D0006021094A094827F05BFD094B1B88222B08
:1040E00012D8084B6121044AF4E700BFF5F5FAFF46
:1040F0009C6101205CF002085EF10208D9F0020820
:10410000A061012020F10208D54B2221186801F09E
:10411000D5F8D44A03460A211B981BF06DFE1B9963
:104120004046C4F8381116F093FDCF4B404629465F
:1041300031932323ADF8C83016F0AAFD414619EE9D
:10414000100A15F087F8072214210A98FFF702FCDD
:10415000C64B0A994846C4F86C3104F6B478A4F802
:10416000706116F0FBFA04F5BC7399E8070083E868
:104170000700BD4B29460A9831932123ADF8C8307A
:1041800016F086FD0A9919EE100A15F063F819EE7B
:10419000101A384615F05EF84D214B233246504632
:1041A00000915F21FFF7E3FB0F2231461C98FFF7D8
:1041B000D1FB29461C98ADF8C46017F086F81C990D
:1041C000504615F047F807221B210B98FFF7C2FB5A
:1041D000A74B0B994846C4F80C32A4F8106216F0AD
:1041E000BDFA04F5067399E8070083E807009E4BC3
:1041F00029460B9831932423ADF8C83016F048FDBA
:104200000B99504615F026F81B22142119EE900A3E
:10421000FFF7A0FB974B19EE901A4846C4F85432AA
:10422000D4F82432A4F85862D3F88430984704F5BF
:10423000187399E8070083E807008F490B68002B83
:104240003FF445AF8D490B88252B7FF64AAF844A52
:104250002521106801F032F8824A03460A214046BF
:104260001BF0CAFD19EE900AC4F86C824FF0FF38BB
:1042700016F0EEFC7C4B294619EE900A319326236A
:10428000ADF8C83016F004FD504619EE901A14F03F
:10429000E1FF5146384604F6C87A14F0DBFF4D20A2
:1042A00078233246B42100900C98FFF760FB0A2275
:1042B00031461D98FFF74EFB082329461D98ADF89F
:1042C000C43017F002F81D990C9814F0C3FF0D22AA
:1042D0001E211AEE100AFFF73DFBD4F8C8321AEE81
:1042E000101A4846D3F88430C4F8F882A4F8FC6267
:1042F000984704F5417399E8070083E807005E4892
:104300000368002B3FF4E3AE5C490B881F2B7FF65C
:10431000E8AE534A1F21106800F0D0FF514A03460F
:104320000A2150461BF068FD1AEE100AC4F810A3CB
:1043300004F6DC7A16F08CFC4B4B29461AEE100A78
:1043400031932023ADF8C83016F0A2FC1AEE101AF3
:104350000C9814F07FFF0C99384614F07BFF4FF057
:104360004D0C4B233246CDF800C04FF49B711AEE32
:10437000900AFFF7FCFA0F2231461E98FFF7EAFA7F
:1043800029461E98ADF8C46016F09FFF1E991AEEDC
:10439000900A14F05FFF072215210D98FFF7DAFA53
:1043A0000D994846C4F89C83A4F8A06316F0D6F98A
:1043B00004F56A7399E8070083E807002A4B294649
:1043C0000D9831931E23ADF8C83016F061FC0D999D
:1043D0001AEE900A14F03EFF1D2214210E98FFF7EA
:1043E000B9FA2846C4F8E483A4F8E863FFF71EFC92
:1043F00004F57C7395E8070083E807001E4803680E
:10440000002B3FF464AE1D490B881C2B7FF669AE70
:10441000134A1C21106800F051FF124A03460A217A
:1044200050461BF0E9FC0E98C4F8FCA34FF01D0A9F
:1044300016F00EFC0C4B29460E983193ADF8C8A02F
:1044400016F026FC0E991AEE900A14F003FF1AEEED
:10445000901A384614F0FEFE4B23324610E000BF9F
:10446000A8610120A00D030818EC0208F7F7FAFF75
:10447000FAFAFAFFFCFCFFFF9C610120A061012019
:1044800040F28B1100935846FFF771FA0F22314624
:104490001F98FFF75FFA29461F98ADF8C46016F021
:1044A00014FF1F99584614F0D5FE072211210F98CA
:1044B000FFF750FA0F994846C4F88884A4F88C6432
:1044C00016F04CF904F2944399E8070083E80700DA
:1044D000DE4B29460F9831931923ADF8C83016F0FA
:1044E000D7FB0F99584614F0B5FE52461421109888
:1044F000FFF730FA2846C4F8D084A4F8D464FFF754
:1045000095FB04F2DC4395E8070083E80700D048F8
:1045100004F57F650368002B3FF4D9ADCD490B88C6
:104520001A2B7FF6DEADCC4A1A21DFF820934FF02C
:10453000090A10684FF0000800F0C0FEC74A0346A1
:104540000A21284604F580561BF056FC1098C4F842
:10455000E85431AD16F07CFB4FF01B002946CDF836
:10456000C490ADF8C8000436109816F091FB584678
:10457000109914F06FFE59463846DFF8D4B214F0A3
:1045800069FE4620542350220A2100901BEE100A97
:10459000FFF7EDF90A2200212098FFF7DBF9294601
:1045A0002098ADF8C4A016F090FE20991BEE100ADA
:1045B00014F050FE162219211198FFF7CBF9A84BE1
:1045C0002846A4F87885C4F87435FFF72FFB04F566
:1045D000B06395E8070083E80700DBF80030002BA4
:1045E0003FF475AD9B490B88162B7FF67AAD9A4A3E
:1045F0001621106800F062FE984A03460A213046F0
:104600001BF0FAFB1198C4F88C652CAE16F020FB59
:104610004FF017002946CDF8C490ADF8C8001198A6
:1046200016F036FB11991BEE100A14F013FE4246E9
:1046300013211BEE900AFFF78DF98A481BEE901AA2
:10464000A4F8C485C4F8C005304616F087F81BEE00
:10465000900A4FF0180C00F13C0396E8070083E83D
:10466000070029461BEE900AADF8C8C0CDF8C490EB
:1046700016F00EFB1BEE901A1BEE100A14F0EAFD6A
:104680001BEE101A384614F0E5FD4FF0460C54238B
:104690005022CDF800C068211CEE100AFFF767F920
:1046A0000A2241462198FFF755F929462198ADF88D
:1046B000C4A016F00AFE21991CEE100A14F0CAFDDF
:1046C000162219211298FFF745F94FF0FF3E2846B0
:1046D000A4F86486C4F860E604F5805AFFF7A6FAE9
:1046E00004F26C630AF1180A95E8070083E80700F2
:1046F000DBF80030002B3FF4EAAC56490B88142B52
:104700007FF6EFAC544A1421106800F0D7FD534AED
:1047100003460A2150461BF06FFB1298C4F878A696
:1047200004F5815A16F094FA152329461298ADF82B
:10473000C8300AF10C0ACDF8C49016F0A9FA129903
:104740001CEE100A14F086FD424617211CEE900A5A
:10475000FFF700F943481CEE901AA4F8B086C4F89D
:10476000AC06304615F0FAFF1CEE900A00F13C034F
:1047700096E8070083E80700132329461CEE900AF9
:10478000CDF8C490ADF8C83016F082FA1CEE901A3D
:104790001CEE100A14F05EFD1CEE101A384614F0E0
:1047A00059FD4FF0460E54235022CDF800E0C621AB
:1047B0001DEE100AFFF7DBF8162219211398FFF7F8
:1047C000C9F84FF0FF3E2846A4F82487C4F820E734
:1047D000FFF72CFA04F22C7395E8070083E8070032
:1047E000DBF80030002B3FF472AC1A490B88102B19
:1047F0007FF677AC184A1021106800F05FFD174A69
:1048000003460A2150461BF0F7FA1398C4F838A75C
:104810004FF0120A16F01CFA112329461398ADF82E
:10482000C830CDF8C49016F033FA13991DEE100A73
:1048300014F010FD42461B211DEE900AFFF78AF886
:104840004FF0FF3E1DEE901A30460DE018EC0208C6
:104850009C610120A0610120A8610120A00D030836
:10486000FAFAFCFFFCFCFFFFC4F86CE7A4F87087C1
:1048700015F074FF1DEE900A00F13C0396E8070066
:1048800083E8070029461DEE900ACDF8C490ADF8E4
:10489000C8A016F0FDF91DEE901A1DEE100A14F0D6
:1048A000D9FC0A2241462298FFF754F84FF0090C30
:1048B00029462298ADF8C4C016F007FD22991DEED6
:1048C000100A14F0C7FC1DEE101A384614F0C2FC92
:1048D0004FF0460E54235022CDF800E04FF4927171
:1048E0001EEE100AFFF743F8172218211498FFF75D
:1048F00031F8DE48A4F81088C4F80C082846FFF701
:1049000095F904F6180304F5825E95E8070083E83C
:104910000700DBF80030CDF828E0002B3FF4D7ABE0
:10492000D3490B880D2B7FF6DCABD24A0D211068E2
:1049300000F0C4FCD04A03460A210A981BF05CFA36
:104940000A9B1498C4F8243816F082F90E232946DD
:104950001498ADF8C830CDF8C49016F099F91499B0
:104960001EEE100A14F076FC424616211EEE900A46
:10497000FEF7F0FFBD481EEE901AA4F85C88C4F85C
:104980005808304615F0EAFE1EEE900A00F13C038E
:1049900096E8070083E807000F2329461EEE900AD9
:1049A000CDF8C490ADF8C83016F072F91EEE901A2A
:1049B0001EEE100A14F04EFC0A2241462398FEF720
:1049C000C9FF4FF0090C29462398ADF8C4C016F072
:1049D0007CFC23991EEE100A14F03CFC1EEE101A0B
:1049E000384614F037FC4FF0460E54235022CDF8D1
:1049F00000E04FF4C1711FEE100AFEF7B8FF0A2263
:104A000041462498FEF7A6FF4FF0090C294624984A
:104A1000ADF8C4C016F059FC24991FEE100A14F02A
:104A200019FC424651461FEE900AFEF793FF934B46
:104A300030461FEE901AC4F82439A4F8288915F0DE
:104A40008DFE1FEE900A00F13C0396E8070083E814
:104A500007000A2329461FEE900A844EADF8C8309D
:104A6000CDF8C49016F014F91FEE901A1FEE100A3C
:104A700014F0F0FB172219211598FEF76BFF28465A
:104A8000C4F86C69A4F87089FFF7D0F804F67813BD
:104A900095E8070004F5825583E80700DBF800304D
:104AA0001435002B3FF413AB71490B880B2B7FF6A9
:104AB00018AB704A0B21DA46106800F0FFFB6E4A13
:104AC00003460A2128461BF097F91598C4F8845923
:104AD00031AD16F0BDF8CDF8C4904FF00C09294661
:104AE0001598ADF8C89016F0D3F815991FEE100A76
:104AF00014F0B0FB1FEE101A384614F0ABFB462042
:104B000054239B220A2100900398FEF730FF1622BF
:104B100024211698FEF71EFFC4F8E469A4F8E8897A
:104B20002846FFF783F804F51F63464604F58358CB
:104B300095E8070083E80700DBF8003008F1080873
:104B4000002B3FF4C4AA4A490B88072B7FF6C9AA59
:104B5000484A07210DF1B00B106800F0AFFB464A40
:104B600003460A2140461BF047F91698C4F8FC8911
:104B700016F06EF8424B2946169831930823ADF88B
:104B8000C83016F085F81699039814F063FB324686
:104B90001C210498FEF7DEFE4FF0FF3304995846BF
:104BA000C4F8303AA4F8346A15F0D8FD04984FF0F0
:104BB000090C00F13C03E0469BE8070083E807008E
:104BC0002F4B29460498ADF8C8C0319316F060F811
:104BD000DDE9030114F03EFB0A2231462598FEF779
:104BE000B9FE29462598ADF8C48016F06EFB2599CC
:104BF00004F58358039814F02DFB0399384608F107
:104C00001C0814F027FB4123A0226821059800937B
:104C10004FF48873FEF7ABFE3246314618EE100AA9
:104C2000FEF798FE0522372318EE100A114600936E
:104C30004FF4837313F076FF0A223346314618EEA1
:104C4000100A009614F044F9314618EE100A13F0D9
:104C500010FF0B23294618EE100AADF8C43014F0EB
:104C60008BFA0D2118EE100A0CE000BFFCFCFFFFD0
:104C7000A0610120A8610120A00D0308F7F7FAFF49
:104C800018EC020813F03BFF0A2118EE100A13F08B
:104C900061FF012118EE100A13F012FF18EE101A2E
:104CA000059814F0D7FA0A2258212698FEF752FEEA
:104CB00029462698ADF8C49016F007FB269905986A
:104CC00014F0C8FA0E226C211798FEF743FEC04B71
:104CD0002846A4F8186CC4F8143CFEF7A7FF04F5A6
:104CE000426395E8070083E80700DAF80030002BFC
:104CF0003FF4EDA9B7490B88002B3FF4F2A9B64A5F
:104D0000314604F58459106800F0D8FAB34A0346D6
:104D10000A21404609F110091BF06EF81798C4F8F3
:104D20002C8C4FF0010815F093FFAD4B29461798D6
:104D30003193ADF8C88015F0ABFF1799059814F0C2
:104D400089FA0599384614F085FA462054239B22A7
:104D50004FF4C17100900698FEF709FE14220E214F
:104D60001898FEF7F7FD9F48A4F8906CC4F88C0CD7
:104D70002846FEF75BFF04F6984395E8070083E8B2
:104D80000700DAF80030002B3FF4A1A991490B8805
:104D9000052B7FF6A6A9904A05214FF01B0A106843
:104DA00000F08CFA8D4A03460A2148461BF024F88D
:104DB0001898C4F8A49C4FF0040915F049FF884BDB
:104DC0002946189831930623ADF8C83015F060FFD6
:104DD0001899069814F03EFA424607981A21FEF7F1
:104DE000B9FD814A07995846C4F8D82CA4F8DC6C60
:104DF00015F0B4FC079A02F13C039BE8070083E836
:104E00000700774B294607983193ADF8C89015F005
:104E10003FFFDDE9060114F01DFA0A22314627980A
:104E2000FEF798FD4FF0090C29462798ADF8C4C04D
:104E300016F04BFA2799069814F00CFA06993846A2
:104E400014F008FA96231998EB220A21CDF800A055
:104E5000FEF78DFD052208983C21FEF77BFD614899
:104E60000899C4F8780D5846A4F87C6D15F076FCC6
:104E7000089A02F13C039BE8070083E80700584BBF
:104E80004FF00302294608983193ADF8C82015F079
:104E9000FFFE0899199814F0DDF93246314628983A
:104EA000FEF758FD29462898ADF8C48016F00DFA93
:104EB0002899199814F0CEF91999384614F0CAF9BE
:104EC00096231A98EB224FF4A071CDF800A0FEF7BC
:104ED0004EFD4A4609984221FEF73CFD414809999A
:104EE000C4F8180E5846A4F81C6E15F037FC099A41
:104EF00002F13C039BE8070083E80700384B294692
:104F0000099831930223ADF8C83015F0C1FE099914
:104F10001A9814F09FF9324631462998FEF71AFD87
:104F200029462998ADF8C48016F0CFF929991A9826
:104F300014F090F91A99384614F08CF997232A98AE
:104F4000EB22A521CDF800A0FEF711FD3246414627
:104F500018EE900AFEF7FEFC13234A46494618EE67
:104F6000900A00938E2313F0DDFD33466422314610
:104F700018EE900A009613F0ABFF314618EE900A37
:104F800013F077FD294618EE900AADF8C48014F0AE
:104F9000F3F818EE900A032113F0B1FD18EE900A11
:104FA000642113F0D7FD414618EE900A13F088FDF6
:104FB00018EE901A2A9814F04DF938462A9914F0F0
:104FC00049F9204635B0BDEC108BBDE8F08F00BF2D
:104FD000FAFAFAFFA0610120A8610120A00D0308E0
:104FE00018EC0208F5F5FAFFFCFCFFFF7047000023
:104FF00030B5164D8FB02C78BFF35B8F14F00104E1
:1050000021D1284626F097FDE8B13F23162210490A
:105010000993104B10480893104B0A9407930123EF
:1050200001940493CDE905430423CDE90243102301
:10503000CDE90B440093FEF74FFC094826F0C6FD6E
:10504000284626F084FD04480FB030BD382D0020DE
:105050004CF60D90102303083C2D00204823030834
:10506000ED4F00087047000030B5164D8FB02C781A
:10507000BFF35B8F14F0010421D1284626F05BFDBD
:10508000E8B13F23012210490993104B10480893BF
:10509000104B0A940594CDE906430423CDE903326D
:1050A0001E230D220093CDE90B44CDE90144FEF708
:1050B00013FC094826F08AFD284626F048FD0448DE
:1050C0000FB030BD682D002080F70D9040230308FD
:1050D0006C2D00204C230308655000087047000029
:1050E00030B5174D8FB02C78BFF35B8F14F00104EF
:1050F00022D1284626F01FFDF0B13F23012211499D
:105100000993114B11480893114B0A940594CDE96A
:1051100006430423CDE9033230230B2200933123CD
:10512000CDE90B44CDE90144FEF7D6FB094826F052
:105130004DFD284626F00BFD04480FB030BD00BFE2
:10514000982D002038F80D90442303089C2D002052
:1051500050230308DD5000080020704700207047EE
:105160000EB403B503AB002153F8042B019318F0E0
:1051700031FD02B05DF804EB03B070470CB407B525
:1051800004AB53F8042B019318F024FD03B05DF831
:1051900004EB02B070470000436C10B5044673B3D3
:1051A000038F2BB9184BC521184A194826F0F0FC7B
:1051B000C38E00EB43035B8C0BB31AF06FF8238FA5
:1051C000012B03D8134BCB21134AEEE7E28E40F6B6
:1051D0003F10531C9BB2092B194688BFA3F10A014B
:1051E00004EB4101498C814209D10A2B04EB4202B4
:1051F00028BF0023508C04EB43035884518420467D
:10520000BDE8104019F04CBFC4F20208CDF202080C
:1052100078F30208C2F30208D0F3020819F009BFBC
:1052200010B586B002AC84E806001A460AAB2146E7
:1052300005930193099B0093089B17F025F906B08D
:1052400010BD000038B518BB124B13481B6813493A
:10525000B3B11A689C681A441C4402605A681A4424
:105260000A600F4B00221A8000F038F8054600F063
:1052700033F80C4B1C600C4B1D600C4B188007E086
:105280000B4B03600B4B0B600B4B1C68002CE8D1E5
:1052900038BD00BFC82D0020CC2D0020D02D00200F
:1052A000D42D00209C610120A4610120A061012077
:1052B00070F90D90D4F80D9054FA0D90044B1B68C2
:1052C00053F82100034B1B6803EB4000704700BFFD
:1052D000D02D0020CC2D002027207047004870479B
:1052E000D82D002010B5054CFFF782FE2060FFF797
:1052F000BBFE6060FFF7F4FEA06010BDD82D00205B
:105300007047704710B441680346C2689B685410E8
:1053100001EB6200D20748BF0A595DF8044B48BF51
:10532000D358184743682BB183682BB9C06800F085
:1053300001007047184670470120704710B50446B9
:10534000102126F0F6FB204610BD10B504464FF4A0
:10535000B67126F0EEFB204610BD10B50446D0F81D
:10536000580100F0D7F82046BDE8104017F06ABD9C
:105370002DE9F14FD0E9555A0746A86803681B6A22
:10538000984741F2A303984205D8464BA321464AC9
:10539000464826F0FDFB686803681B6A98470F289B
:1053A00003D8434BA421404AF2E7E86803681B6A2C
:1053B00098470B2803D83F4BA5213B4AE8E7DFF885
:1053C000FC9017F0A3FC043017F0DEFCD9F80000C5
:1053D00010B10368DB689847D9F8000010B1036882
:1053E0001B689847DFF8D880D8F8000010B1036830
:1053F0005B699847D7F83C0110B103685B68984730
:10540000D8F8000010B103681B689847D7F83C0132
:1054100010B103689B689847E86800214FF0000BC3
:1054200003685B6A9847244B0446C0F804B00360E5
:10543000594680F808B0A86803685B6A9847064632
:1054400000F0D4F96868594603685B6A98470546D6
:10545000314600F087F9C9F80040C7F83C51C8F858
:105460000060E5B12B1DCAF8003030463368C5F83E
:1054700008A0DB68F56398472B6828461B689847A7
:105480002146304619F0ACF9236820461B6998473D
:10549000236820465B6901B0BDE8F04F18472B46F2
:1054A000E1E700BF20EC0208A2F40208B2ED020816
:1054B000F9ED02089CEE0208ACEF02088C610120B5
:1054C0008861012010B50446FEF794F9054B20468B
:1054D0002360054BC4F85C310023C4E95833C4F899
:1054E000683110BDC8F50208B0F50208064BC0F8D7
:1054F0006001C0F864310023C0F8683100F5AE7374
:10550000C0F84031704700BF7153000800220260AC
:105510007047000013B5002304462B4869461A461D
:10552000006804F083F848B99DF800304A2B05D88C
:105530003B2B05D8012B10D0022B12D002B010BD8E
:105540003D3B20680D2B12D8DFE803F0141A1D171D
:10555000202C23292632352F383B17F0D7FBFFF7B5
:10556000C5FF206803685B6C01999847E6E703680C
:105570009B68F9E70368DB68F6E703681B69F3E7F4
:1055800003685B69F0E703689B69EDE70368DB6923
:10559000EAE703681B6AE7E703685B6AE4E7036816
:1055A0009B6AE1E70368DB6ADEE703681B6BDBE706
:1055B00003685B6BD8E703689B6BD5E70368DB6B1D
:1055C000D2E703681B6CCFE74001002070477047AB
:1055D0007047704770477047704770477047704713
:1055E000704770477047704770477047704704387E
:1055F0007047704710B50446102126F09AFA2046ED
:1056000010BDA0F10400F5E70022C1608260044AE9
:1056100010B502F1080420320460426010BD00BFE2
:105620000CF6020870470000034B10B504460360F7
:10563000FEF787F9204610BD7CF6020810B5044637
:10564000FFF7F2FFC421204626F073FA204610BD72
:1056500010B50446FEF7B4F9014B2046236010BD97
:105660007CF60208FEF76EB9704704387047704741
:1056700010B50446102126F05CFA204610BDA0F1BA
:105680000400F5E7C06800F099B9A0F10400FFF745
:10569000F9BFC06800F0BEB9A0F10400FFF7F9BF80
:1056A000C06800F0AFB8A0F10400FFF7F9BFC06810
:1056B00000F0DCB9A0F10400FFF7F9BFC06800F00A
:1056C00001BAA0F10400FFF7F9BFC06800F0B4B858
:1056D000A0F10400FFF7F9BFC06800F0C9B8A0F15D
:1056E0000400FFF7F9BFC06800F0DEB8A0F10400C5
:1056F000FFF7F9BFC06800F0F3B8A0F10400FFF7AE
:10570000F9BFC06800F006B9A0F10400FFF7F9BFC7
:10571000C06800F01BB9A0F10400FFF7F9BFC06832
:1057200000F026BAA0F10400FFF7F9BFC06800F04E
:1057300029B9A0F10400FFF7F9BFC06800F0EEB985
:10574000A0F10400FFF7F9BFC06800F0FCB9A0F1B8
:105750000400FFF7F9BFC06800F02ABAA0F1040006
:10576000FFF7F9BF0022C1608260044A10B502F160
:10577000080460320460426010BD00BFA8F6020851
:1057800070470000034B10B504460360FEF7C4F9F0
:10579000204610BDFCF7020810B50446FFF7F2FFE3
:1057A00041F2A401204626F0C4F9204610BD0000B5
:1057B000426910B532B90A4B40F20111094A0A4850
:1057C00026F0E6F9B2F90810B0F908200368891A42
:1057D0001B6B01EBD171BDE8104041F34F0118473D
:1057E00050F7020884F70208A7F7020810B504462C
:1057F000FEF756FA014B2046236010BDFCF7020865
:10580000FEF78BB913B504460B460A4A0A2100F687
:10581000C8701AF0F1FA04F53270019015F054FADC
:105820000198FFF7C5FF04F51C7002B0BDE81040F9
:1058300018F0FBBAFE0A030813B5044600F58050C1
:105840000B460A4A0A2104301AF0D6FA04F24450F0
:10585000019015F039FA0198FFF7AAFF04F2EC4025
:1058600002B0BDE8104018F0E0BA00BFFE0A03081D
:1058700013B5044600F580500B460A4A0A21183039
:105880001AF0BAFA04F5C660019015F01DFA0198F5
:10589000FFF78EFF04F5BB6002B0BDE8104018F0C2
:1058A000C4BA00BFFE0A030813B5044600F58150D0
:1058B0000B460A4A0A210C301AF09EFA04F5DE6003
:1058C000019015F001FA0198FFF772FF04F2C4602D
:1058D00002B0BDE8104018F0A8BA00BFFE0A0308E5
:1058E00013B504460B460A4A0A2100F582501AF005
:1058F00083FA04F2DC70019015F0E6F90198FFF7E5
:1059000057FF04F5F66002B0BDE8104018F08DBAFC
:10591000FE0A030813B5044600F582500B460A4AF6
:105920000A2114301AF068FA04F63C10019015F0C0
:10593000CBF90198FFF73CFF04F69C0002B0BDE8EC
:10594000104018F072BA00BFFE0A030813B50446EF
:1059500000F583500B460A4A0A2108301AF04CFA27
:1059600004F6B410019015F0AFF90198FFF720FF8D
:1059700004F6881002B0BDE8104018F056BA00BF17
:10598000FE0A030813B5044600F584500B460A4A84
:105990000A2110301AF030FA04F65C40019015F03C
:1059A00093F90198FFF704FF04F5436002B0BDE8E6
:1059B000104018F03ABA00BFFE0A030830B504469A
:1059C00085B00B46124A0D4600F57A600A211AF09E
:1059D00013FA04F1F0001E3D019015F075F90198DD
:1059E000FFF7E6FE04F1980018F01FFA312D04F1DC
:1059F000C40003A994BF042300230190ADF80C3028
:105A000015F063FC019805B0BDE8304018F00DBA00
:105A1000FE0A030830B5044685B00B46124A0D460F
:105A200000F6B4700A211AF0E7F904F509701E3D7A
:105A3000019015F049F90198FFF7BAFE04F5C2701C
:105A400018F0F3F9312D04F5D87003A994BF07239A
:105A500000230190ADF80C3015F037FC019805B02B
:105A6000BDE8304018F0E1B9FE0A030830B504463D
:105A700085B00B46124A0D4600F6DC700A211AF07A
:105A8000BBF904F56D701E3D019015F01DF90198EC
:105A9000FFF78EFE04F5457018F0C7F9312D04F5B7
:105AA000507003A994BF072300230190ADF80C3078
:105AB00015F00BFC019805B0BDE8304018F0B5B901
:105AC000FE0A030830B5044685B00B46124A0D465F
:105AD00000F57F600A211AF08FF904F594601E3DED
